{
  "contractName": "reeler",
  "abi": [
    {
      "inputs": [],
      "payable": false,
      "stateMutability": "nonpayable",
      "type": "constructor"
    },
    {
      "anonymous": false,
      "inputs": [
        {
          "indexed": false,
          "internalType": "address payable",
          "name": "owner",
          "type": "address"
        },
        {
          "indexed": false,
          "internalType": "uint256",
          "name": "yid",
          "type": "uint256"
        },
        {
          "indexed": false,
          "internalType": "string",
          "name": "types",
          "type": "string"
        },
        {
          "indexed": false,
          "internalType": "string",
          "name": "weight",
          "type": "string"
        },
        {
          "indexed": false,
          "internalType": "uint256",
          "name": "price",
          "type": "uint256"
        },
        {
          "indexed": false,
          "internalType": "string",
          "name": "colour",
          "type": "string"
        }
      ],
      "name": "YarnCreated",
      "type": "event"
    },
    {
      "anonymous": false,
      "inputs": [
        {
          "indexed": false,
          "internalType": "address payable",
          "name": "owner",
          "type": "address"
        },
        {
          "indexed": false,
          "internalType": "uint256",
          "name": "yid",
          "type": "uint256"
        },
        {
          "indexed": false,
          "internalType": "string",
          "name": "types",
          "type": "string"
        },
        {
          "indexed": false,
          "internalType": "string",
          "name": "weight",
          "type": "string"
        },
        {
          "indexed": false,
          "internalType": "uint256",
          "name": "price",
          "type": "uint256"
        },
        {
          "indexed": false,
          "internalType": "string",
          "name": "colour",
          "type": "string"
        }
      ],
      "name": "YarnPurchased",
      "type": "event"
    },
    {
      "constant": true,
      "inputs": [],
      "name": "addres",
      "outputs": [
        {
          "internalType": "string",
          "name": "",
          "type": "string"
        }
      ],
      "payable": false,
      "stateMutability": "view",
      "type": "function"
    },
    {
      "constant": true,
      "inputs": [],
      "name": "id",
      "outputs": [
        {
          "internalType": "uint256",
          "name": "",
          "type": "uint256"
        }
      ],
      "payable": false,
      "stateMutability": "view",
      "type": "function"
    },
    {
      "constant": true,
      "inputs": [],
      "name": "name",
      "outputs": [
        {
          "internalType": "string",
          "name": "",
          "type": "string"
        }
      ],
      "payable": false,
      "stateMutability": "view",
      "type": "function"
    },
    {
      "constant": true,
      "inputs": [],
      "name": "pincode",
      "outputs": [
        {
          "internalType": "string",
          "name": "",
          "type": "string"
        }
      ],
      "payable": false,
      "stateMutability": "view",
      "type": "function"
    },
    {
      "constant": true,
      "inputs": [],
      "name": "state",
      "outputs": [
        {
          "internalType": "string",
          "name": "",
          "type": "string"
        }
      ],
      "payable": false,
      "stateMutability": "view",
      "type": "function"
    },
    {
      "constant": true,
      "inputs": [],
      "name": "yarncount",
      "outputs": [
        {
          "internalType": "uint256",
          "name": "",
          "type": "uint256"
        }
      ],
      "payable": false,
      "stateMutability": "view",
      "type": "function"
    },
    {
      "constant": true,
      "inputs": [
        {
          "internalType": "uint256",
          "name": "",
          "type": "uint256"
        }
      ],
      "name": "yarns",
      "outputs": [
        {
          "internalType": "address payable",
          "name": "owner",
          "type": "address"
        },
        {
          "internalType": "uint256",
          "name": "yid",
          "type": "uint256"
        },
        {
          "internalType": "string",
          "name": "types",
          "type": "string"
        },
        {
          "internalType": "string",
          "name": "weight",
          "type": "string"
        },
        {
          "internalType": "uint256",
          "name": "price",
          "type": "uint256"
        },
        {
          "internalType": "string",
          "name": "colour",
          "type": "string"
        }
      ],
      "payable": false,
      "stateMutability": "view",
      "type": "function"
    },
    {
      "constant": false,
      "inputs": [
        {
          "internalType": "string",
          "name": "_types",
          "type": "string"
        },
        {
          "internalType": "string",
          "name": "_weight",
          "type": "string"
        },
        {
          "internalType": "uint256",
          "name": "_price",
          "type": "uint256"
        },
        {
          "internalType": "string",
          "name": "_colour",
          "type": "string"
        }
      ],
      "name": "createYarn",
      "outputs": [],
      "payable": false,
      "stateMutability": "nonpayable",
      "type": "function"
    },
    {
      "constant": false,
      "inputs": [
        {
          "internalType": "uint256",
          "name": "_yid",
          "type": "uint256"
        }
      ],
      "name": "purchaseYarn",
      "outputs": [],
      "payable": true,
      "stateMutability": "payable",
      "type": "function"
    }
  ],
  "bytecode": "0x608060405260006005553480156200001657600080fd5b5061044a6000819055506040518060400160405280600381526020017f6a6f790000000000000000000000000000000000000000000000000000000000815250600190805190602001906200006d9291906200015e565b506040518060400160405280600681526020017f6d79736f7265000000000000000000000000000000000000000000000000000081525060029080519060200190620000bb9291906200015e565b506040518060400160405280600981526020017f6b61726e6174616b61000000000000000000000000000000000000000000000081525060039080519060200190620001099291906200015e565b506040518060400160405280600681526020017f353630303433000000000000000000000000000000000000000000000000000081525060049080519060200190620001579291906200015e565b506200020d565b828054600181600116156101000203166002900490600052602060002090601f016020900481019282601f10620001a157805160ff1916838001178555620001d2565b82800160010185558215620001d2579182015b82811115620001d1578251825591602001919060010190620001b4565b5b509050620001e19190620001e5565b5090565b6200020a91905b8082111562000206576000816000905550600101620001ec565b5090565b90565b61160b806200021d6000396000f3fe6080604052600436106100865760003560e01c80636bceb2f2116100595780636bceb2f214610516578063921f66c3146105a65780639ce97ab3146105d1578063af640d0f14610661578063c19d93fb1461068c57610086565b80630656346a1461008b57806306fdde031461028b5780633ca99f361461031b5780633e83c592146104e8575b600080fd5b34801561009757600080fd5b50610289600480360360808110156100ae57600080fd5b81019080803590602001906401000000008111156100cb57600080fd5b8201836020820111156100dd57600080fd5b803590602001918460018302840111640100000000831117156100ff57600080fd5b91908080601f016020809104026020016040519081016040528093929190818152602001838380828437600081840152601f19601f8201169050808301925050505050505091929192908035906020019064010000000081111561016257600080fd5b82018360208201111561017457600080fd5b8035906020019184600183028401116401000000008311171561019657600080fd5b91908080601f016020809104026020016040519081016040528093929190818152602001838380828437600081840152601f19601f820116905080830192505050505050509192919290803590602001909291908035906020019064010000000081111561020357600080fd5b82018360208201111561021557600080fd5b8035906020019184600183028401116401000000008311171561023757600080fd5b91908080601f016020809104026020016040519081016040528093929190818152602001838380828437600081840152601f19601f82011690508083019250505050505050919291929050505061071c565b005b34801561029757600080fd5b506102a0610a36565b6040518080602001828103825283818151815260200191508051906020019080838360005b838110156102e05780820151818401526020810190506102c5565b50505050905090810190601f16801561030d5780820380516001836020036101000a031916815260200191505b509250505060405180910390f35b34801561032757600080fd5b506103546004803603602081101561033e57600080fd5b8101908080359060200190929190505050610ad4565b604051808773ffffffffffffffffffffffffffffffffffffffff1673ffffffffffffffffffffffffffffffffffffffff168152602001868152602001806020018060200185815260200180602001848103845288818151815260200191508051906020019080838360005b838110156103da5780820151818401526020810190506103bf565b50505050905090810190601f1680156104075780820380516001836020036101000a031916815260200191505b50848103835287818151815260200191508051906020019080838360005b83811015610440578082015181840152602081019050610425565b50505050905090810190601f16801561046d5780820380516001836020036101000a031916815260200191505b50848103825285818151815260200191508051906020019080838360005b838110156104a657808201518184015260208101905061048b565b50505050905090810190601f1680156104d35780820380516001836020036101000a031916815260200191505b50995050505050505050505060405180910390f35b610514600480360360208110156104fe57600080fd5b8101908080359060200190929190505050610cf8565b005b34801561052257600080fd5b5061052b6112ff565b6040518080602001828103825283818151815260200191508051906020019080838360005b8381101561056b578082015181840152602081019050610550565b50505050905090810190601f1680156105985780820380516001836020036101000a031916815260200191505b509250505060405180910390f35b3480156105b257600080fd5b506105bb61139d565b6040518082815260200191505060405180910390f35b3480156105dd57600080fd5b506105e66113a3565b6040518080602001828103825283818151815260200191508051906020019080838360005b8381101561062657808201518184015260208101905061060b565b50505050905090810190601f1680156106535780820380516001836020036101000a031916815260200191505b509250505060405180910390f35b34801561066d57600080fd5b50610676611441565b6040518082815260200191505060405180910390f35b34801561069857600080fd5b506106a1611447565b6040518080602001828103825283818151815260200191508051906020019080838360005b838110156106e15780820151818401526020810190506106c6565b50505050905090810190601f16801561070e5780820380516001836020036101000a031916815260200191505b509250505060405180910390f35b600084511161072a57600080fd5b600083511161073857600080fd5b6000821161074557600080fd5b600081511161075357600080fd5b6005600081548092919060010191905055506040518060c001604052803373ffffffffffffffffffffffffffffffffffffffff16815260200160055481526020018581526020018481526020018381526020018281525060066000600554815260200190815260200160002060008201518160000160006101000a81548173ffffffffffffffffffffffffffffffffffffffff021916908373ffffffffffffffffffffffffffffffffffffffff16021790555060208201518160010155604082015181600201908051906020019061082c9291906114e5565b5060608201518160030190805190602001906108499291906114e5565b506080820151816004015560a08201518160050190805190602001906108709291906114e5565b509050507faf4d4b826be128584e3e966001c2af45ae814f467325b0ac1af5808239e2561e3360055486868686604051808773ffffffffffffffffffffffffffffffffffffffff1673ffffffffffffffffffffffffffffffffffffffff168152602001868152602001806020018060200185815260200180602001848103845288818151815260200191508051906020019080838360005b83811015610923578082015181840152602081019050610908565b50505050905090810190601f1680156109505780820380516001836020036101000a031916815260200191505b50848103835287818151815260200191508051906020019080838360005b8381101561098957808201518184015260208101905061096e565b50505050905090810190601f1680156109b65780820380516001836020036101000a031916815260200191505b50848103825285818151815260200191508051906020019080838360005b838110156109ef5780820151818401526020810190506109d4565b50505050905090810190601f168015610a1c5780820380516001836020036101000a031916815260200191505b50995050505050505050505060405180910390a150505050565b60018054600181600116156101000203166002900480601f016020809104026020016040519081016040528092919081815260200182805460018160011615610100020316600290048015610acc5780601f10610aa157610100808354040283529160200191610acc565b820191906000526020600020905b815481529060010190602001808311610aaf57829003601f168201915b505050505081565b60066020528060005260406000206000915090508060000160009054906101000a900473ffffffffffffffffffffffffffffffffffffffff1690806001015490806002018054600181600116156101000203166002900480601f016020809104026020016040519081016040528092919081815260200182805460018160011615610100020316600290048015610bac5780601f10610b8157610100808354040283529160200191610bac565b820191906000526020600020905b815481529060010190602001808311610b8f57829003601f168201915b505050505090806003018054600181600116156101000203166002900480601f016020809104026020016040519081016040528092919081815260200182805460018160011615610100020316600290048015610c4a5780601f10610c1f57610100808354040283529160200191610c4a565b820191906000526020600020905b815481529060010190602001808311610c2d57829003601f168201915b505050505090806004015490806005018054600181600116156101000203166002900480601f016020809104026020016040519081016040528092919081815260200182805460018160011615610100020316600290048015610cee5780601f10610cc357610100808354040283529160200191610cee565b820191906000526020600020905b815481529060010190602001808311610cd157829003601f168201915b5050505050905086565b610d00611565565b600660008381526020019081526020016000206040518060c00160405290816000820160009054906101000a900473ffffffffffffffffffffffffffffffffffffffff1673ffffffffffffffffffffffffffffffffffffffff1673ffffffffffffffffffffffffffffffffffffffff16815260200160018201548152602001600282018054600181600116156101000203166002900480601f016020809104026020016040519081016040528092919081815260200182805460018160011615610100020316600290048015610e175780601f10610dec57610100808354040283529160200191610e17565b820191906000526020600020905b815481529060010190602001808311610dfa57829003601f168201915b50505050508152602001600382018054600181600116156101000203166002900480601f016020809104026020016040519081016040528092919081815260200182805460018160011615610100020316600290048015610eb95780601f10610e8e57610100808354040283529160200191610eb9565b820191906000526020600020905b815481529060010190602001808311610e9c57829003601f168201915b5050505050815260200160048201548152602001600582018054600181600116156101000203166002900480601f016020809104026020016040519081016040528092919081815260200182805460018160011615610100020316600290048015610f655780601f10610f3a57610100808354040283529160200191610f65565b820191906000526020600020905b815481529060010190602001808311610f4857829003601f168201915b505050505081525050905060008160000151905060008260200151118015610f935750600554826020015111155b610f9c57600080fd5b8160800151341015610fad57600080fd5b3373ffffffffffffffffffffffffffffffffffffffff168173ffffffffffffffffffffffffffffffffffffffff161415610fe657600080fd5b33826000019073ffffffffffffffffffffffffffffffffffffffff16908173ffffffffffffffffffffffffffffffffffffffff1681525050816006600085815260200190815260200160002060008201518160000160006101000a81548173ffffffffffffffffffffffffffffffffffffffff021916908373ffffffffffffffffffffffffffffffffffffffff16021790555060208201518160010155604082015181600201908051906020019061109f9291906114e5565b5060608201518160030190805190602001906110bc9291906114e5565b506080820151816004015560a08201518160050190805190602001906110e39291906114e5565b509050508073ffffffffffffffffffffffffffffffffffffffff166108fc349081150290604051600060405180830381858888f1935050505015801561112d573d6000803e3d6000fd5b507fe119f98c591e30642361e24be7d90e8ab896db01e8f63da5f89c512dc81bc9c8336005548460400151856060015186608001518760a00151604051808773ffffffffffffffffffffffffffffffffffffffff1673ffffffffffffffffffffffffffffffffffffffff168152602001868152602001806020018060200185815260200180602001848103845288818151815260200191508051906020019080838360005b838110156111ed5780820151818401526020810190506111d2565b50505050905090810190601f16801561121a5780820380516001836020036101000a031916815260200191505b50848103835287818151815260200191508051906020019080838360005b83811015611253578082015181840152602081019050611238565b50505050905090810190601f1680156112805780820380516001836020036101000a031916815260200191505b50848103825285818151815260200191508051906020019080838360005b838110156112b957808201518184015260208101905061129e565b50505050905090810190601f1680156112e65780820380516001836020036101000a031916815260200191505b50995050505050505050505060405180910390a1505050565b60048054600181600116156101000203166002900480601f0160208091040260200160405190810160405280929190818152602001828054600181600116156101000203166002900480156113955780601f1061136a57610100808354040283529160200191611395565b820191906000526020600020905b81548152906001019060200180831161137857829003601f168201915b505050505081565b60055481565b60028054600181600116156101000203166002900480601f0160208091040260200160405190810160405280929190818152602001828054600181600116156101000203166002900480156114395780601f1061140e57610100808354040283529160200191611439565b820191906000526020600020905b81548152906001019060200180831161141c57829003601f168201915b505050505081565b60005481565b60038054600181600116156101000203166002900480601f0160208091040260200160405190810160405280929190818152602001828054600181600116156101000203166002900480156114dd5780601f106114b2576101008083540402835291602001916114dd565b820191906000526020600020905b8154815290600101906020018083116114c057829003601f168201915b505050505081565b828054600181600116156101000203166002900490600052602060002090601f016020900481019282601f1061152657805160ff1916838001178555611554565b82800160010185558215611554579182015b82811115611553578251825591602001919060010190611538565b5b50905061156191906115b1565b5090565b6040518060c00160405280600073ffffffffffffffffffffffffffffffffffffffff16815260200160008152602001606081526020016060815260200160008152602001606081525090565b6115d391905b808211156115cf5760008160009055506001016115b7565b5090565b9056fea265627a7a72315820f904c5cd2e2230629cda796eb9ae89b274fe3598efe4cbc58c2e9af373ef283164736f6c63430005100032",
  "source": "pragma solidity ^0.5.16;\r\n\r\ncontract reeler{\r\n  uint public id;\r\n  string public name;\r\n  string public addres;\r\n  string public state;\r\n  string public pincode;\r\n  uint public yarncount = 0;\r\n  mapping(uint => Yarn) public yarns;\r\n  \r\n\r\n  struct Yarn{\r\n    address payable owner;\r\n    uint yid;\r\n    string types;\r\n    string weight;\r\n    uint price;\r\n    string colour; \r\n  }\r\n\r\n  event YarnCreated(\r\n    address payable owner,\r\n    uint yid, \r\n    string types,\r\n    string weight,\r\n    uint price,\r\n    string colour\r\n  );\r\n  event YarnPurchased(\r\n    address payable owner,\r\n    uint yid, \r\n    string types,\r\n    string weight,\r\n    uint price,\r\n    string colour\r\n  );\r\n    constructor() public {\r\n    id= 1098;\r\n    name=\"joy\";\r\n    addres=\"mysore\";\r\n    state=\"karnataka\";\r\n    pincode=\"560043\";\r\n    }\r\n\r\n  function  createYarn(string memory _types, string memory _weight, uint _price, string memory _colour) public {\r\n        //make sure parameters are correct\r\n        //require valid name\r\n        require(bytes(_types).length > 0);\r\n        //require valid weight\r\n        require(bytes(_weight).length > 0);\r\n        //require valid price\r\n        require(_price > 0);\r\n        //require valid clour\r\n        require(bytes(_colour).length > 0);\r\n         //increment product count\r\n        yarncount ++;\r\n        //create product\r\n        yarns[yarncount]= Yarn(msg.sender, yarncount, _types, _weight, _price, _colour);\r\n        //trigger event\r\n        emit YarnCreated(msg.sender, yarncount, _types, _weight, _price, _colour);\r\n        \r\n  }\r\n  function purchaseYarn(uint _yid) public payable {\r\n    // fetch the product\r\n    Yarn memory _yarn= yarns[_yid];\r\n    //fetch the owner\r\n    address payable _seller = _yarn.owner;\r\n    //make sure the yarn has a valid id\r\n    require(_yarn.yid > 0 && _yarn.yid <= yarncount);\r\n    //require enough ether for transaction\r\n    require(msg.value >= _yarn.price);\r\n    //require that the buyer is not seller\r\n    require(_seller != msg.sender);\r\n    //purchase it\r\n    _yarn.owner = msg.sender;\r\n    //update the product\r\n    yarns[_yid]= _yarn;\r\n    //pay the seller by ethers\r\n    address(_seller).transfer(msg.value);\r\n    //trigger event\r\n    emit YarnPurchased(msg.sender, yarncount, _yarn.types, _yarn.weight, _yarn.price, _yarn.colour);\r\n  }\r\n}\r\n\r\n\r\n",
  "sourcePath": "C:/Users/diksha shetty/Reeler/src/contracts/Reeler.sol",
  "compiler": {
    "name": "solc",
    "version": "0.5.16+commit.9c3226ce.Emscripten.clang"
  },
  "schemaVersion": "3.3.4",
  "updatedAt": "2021-03-30T04:44:09.728Z",
  "networkType": "ethereum",
  "devdoc": {
    "methods": {}
  },
  "userdoc": {
    "methods": {}
  }
}